:100000000C942D000C941E0A0C941E0A0C941E0ACB
:100010000C941E0A0C941E0A0C941E0A0C94180AC6
:100020000C941E0A0C941E0A0C941E0A0C941E0AB0
:100030000C941E0A0C941E0A0C941E0A0C941E0AA0
:100040000C941E0A0C941E0A0C941E0A0C941E0A90
:100050000C941E0A006006A8800011241FBECFE584
:10006000D8E0DEBFCDBFE4E5F0E040E017C0B591D9
:10007000A59135912591059107FD0CC0959185912C
:10008000EF01F92FE82F05900D92A217B307D9F7CA
:10009000FE0104C01D92A217B307E1F7E935F4078A
:0E00A00031F70E945D070C945500F894FFCFD5
:1000AE005461736B31005461736B32005461736B26
:1000BE00312069732072756E6E696E670D00546122
:1000CE00736B322069732072756E6E696E670D00E8
:0600DE0049444C450003FB
:1000E4002F923F924F925F926F927F928F92AF9234
:1000F400BF92CF92DF92EF920F931F93CF93DF9330
:100104001C013A01862E59012801C9010E94BC0331
:100114008C01892B09F41FC188E290E00E94BC0382
:10012400EC01892BC9F088E2FE0111928A95E9F766
:10013400188F0F8BA50165EA70E0C8010E94F909C8
:10014400F1E0AF1AB1088F89988DA80EB91E611419
:100154007104810429F430C0C8010E940F08FBC057
:10016400F301849187FC8081898FF301849187FC5A
:100174008081882301F1AE01465E5F4FA82DC30143
:100184000196A11D28E0620E711C811C2A2FFC011E
:100194007491A7FD7081FA017193AF01E82FF92FD3
:1001A4000196A11D349127FD3081332321F086155A
:1001B4009705A80559F718A2F3E0FE1520F40F2EB1
:1001C400F3E0EF2EF02DEE8A8E010E5F1F4FC80173
:1001D4000E940C0ACE010C960E940C0AD987C8878B
:1001E40084E090E08E1991099D878C87DB8BCA8B04
:1001F400A201B101C5010E94DE0499838883C11460
:10020400D10419F0F601D183C0830FB6F8940F928C
:100214008091A6068F5F8093A60680919E0690919A
:100224009F06892BA9F5D0939F06C0939E068091C3
:10023400A6068130E9F58CE396E00E94B00985E4D6
:1002440096E00E94B0098EE496E00E94B00987E52A
:1002540096E00E94B0098BE796E00E94B00982E71D
:1002640096E00E94B00989E696E00E94B00980E613
:1002740096E00E94B0098BE796E090939D068093E8
:100284009C0682E796E090939B0680939A0610C0A2
:100294008091A40681110CC0E0919E06F0919F0606
:1002A40096898E89891720F0D0939F06C0939E0665
:1002B4008091A1068F5F8093A10689A38E89909176
:1002C400A506981710F48093A50690E0FC01EE0FA4
:1002D400FF1FEE0FFF1FEE0FFF1F8E0F9F1FFC016E
:1002E400E45CF94F0180F281E02DFD83EC8384818D
:1002F40095819F838E83A481B58113961C930E935D
:10030400129715830483EE89F0E0CF01880F991FBB
:10031400880F991F880F991FE80FF91FE45CF94FA4
:10032400FB87EA8780818F5F80830F900FBE809167
:10033400A406882361F0E0919E06F0919F069689B9
:100344008E89981730F40E94730681E005C081E01D
:1003540003C081E001C08FEFDF91CF911F910F9116
:10036400EF90DF90CF90BF90AF908F907F906F9081
:0A0374005F904F903F902F90089586
:10037E00EF92FF920F931F93CF93DF938091A0067E
:10038E00811104C1C0919806D09199067E018FEF1C
:10039E00E81AF80AF0929906E0929806E114F10430
:1003AE00B9F480919C0690919D0620919A06309109
:1003BE009B0630939D0620939C0690939B068093FC
:1003CE009A068091A2068F5F8093A2060E9444092E
:1003DE008091940690919506E816F90610F480E047
:1003EE00B9C080E061E0E0919C06F0919D0690819D
:1003FE00911107C02FEF3FEF30939506209394068F
:10040E00A9C0E0919C06F0919D060580F681E02D35
:10041E000680F781E02D22813381E216F30628F45F
:10042E00309395062093940695C0A285B3852481BA
:10043E00358146815781E9015D834C832681378161
:10044E0044815581E9015B834A83AF014E5F5F4F63
:10045E0011962D913C9112972417350731F4268170
:10046E00378112963C932E931197138612869C9188
:10047E0091509C93A489B589109719F126853785DB
:10048E0000891189E9011D830C8320893189068534
:10049E001785E9011B830A8311960D911C91129702
:1004AE009F01245F3F4F0217130731F420893189D2
:1004BE0012963C932E931197158A148A9C91915003
:1004CE009C9326899091A506921710F42093A50669
:1004DE0030E0D901AA0FBB1FAA0FBB1FAA0FBB1F6B
:1004EE002A0F3B1FD901A45CB94F11960D90BC91F8
:1004FE00A02DB583A48314962D913C911597378327
:10050E00268314962D913C911597E9015B834A83BE
:10051E0015965C934E931497A689B0E09D01220F19
:10052E00331F220F331F220F331FA20FB31FA45CE2
:10053E00B94FB387A2879C919F5F9C93A0919E0613
:10054E00B0919F06268956969C91921708F04BCF34
:10055E00862F49CFE0919E06F0919F06268930E0C6
:10056E00F901EE0FFF1FEE0FFF1FEE0FFF1F2E0FF5
:10057E003F1FF901E45CF94F9081923008F081E061
:10058E009091A306992361F081E00AC080919606AE
:10059E00909197060196909397068093960680E029
:0E05AE00DF91CF911F910F91FF90EF90089574
:1005BC001F93CF93DF930FB6F8940F928091A00600
:1005CC0081508093A0068091A0068111C6C08091B5
:1005DC00A60681119BC0C4C0DB011596ED91FC9160
:1005EC0016970680F781E02DA489B58986859785B5
:1005FC0020893189EC013D832C8380899189268562
:10060C003785EC013B832A83CF010C9611962D91F3
:10061C003C9112972817390731F4808991891296E9
:10062C009C938E931197158A148A8C9181508C937C
:10063C00A285B3858481958126813781EC013D8328
:10064C002C838681978124813581EC013B832A831D
:10065C009F012E5F3F4F11968D919C91129782179F
:10066C00930731F48681978112969C938E93119700
:10067C00138612868C9181508C9386899091A50655
:10068C00981710F48093A50690E0DC01AA0FBB1F0D
:10069C00AA0FBB1FAA0FBB1F8A0F9B1FDC01A45CF8
:1006AC00B94F11960D90BC91A02DB583A4831496CF
:1006BC008D919C9115979783868314968D919C911F
:1006CC001597EC013B832A8315963C932E93149734
:1006DC00A689B0E0CD01880F991F880F991F880F4C
:1006EC00991FA80FB91FA45CB94FB387A2878C912F
:1006FC008F5F8C93A0919E06B0919F06968956961B
:10070C008C91981740F04093A30605C0E0E0F0E010
:10071C0069E676E041E0DB018C9181115DCFEF2B36
:10072C0011F00E944409C0919606D091970620972B
:10073C0061F011E00E94BF0181111093A306219773
:10074C00C9F710929706109296068091A3068823FB
:10075C0031F00E94730681E003C080E001C080E0AC
:0C076C000F900FBEDF91CF911F910895F8
:10077800EF92FF920F931F93CF93DF93EC010E94A8
:10078800000A8091900690919106892B11F5E4E872
:10079800F6E0A0E6B0E0B183A08313821282E8E31A
:1007A800F6E0F0939106E09390061382128211828C
:1007B800108288ED95E013969C938E931297ED9393
:1007C800FC9390938D0680938C0690938F0680936C
:1007D8008E06CE0101978A3F9F4F08F067C09E01A1
:1007E8002B5F3F4FCB5FDF47C130D04808F461C073
:1007F80000918E0610918F060217130708F45CC04B
:10080800C0918406D0918506E4E8F6E002C0FE01B6
:10081800EC018A819B818217930720F48881998152
:100828000097A9F78091900690919106C817D9076B
:1008380009F445C0E080F18084E0E80EF11C88816D
:100848009981918380834A815B81421B530B493094
:10085800510550F0CE01820F931FFC015383428350
:100868003B832A830E94CC068A819B81081B190B33
:1008780010938F0600938E0620918C0630918D067A
:100888000217130720F410938D0600938C069068C6
:100898009B838A831982188280918A0690918B069D
:1008A800019690938B0680938A060BC0E12CF12C5D
:1008B80008C0E12CF12C05C0E12CF12C02C0E12C80
:1008C800F12C0E94DE02C701DF91CF911F910F9199
:0608D800FF90EF9008956F
:1008DE0010C00E94EB0958F00E94E40940F029F480
:1008EE005F3F29F00C94060A51110C94F3090C94F5
:1008FE001B0A0E94220968F39923B1F3552391F341
:10090E00951B550BBB27AA2762177307840738F070
:10091E009F5F5F4F220F331F441FAA1FA9F335D0CD
:10092E000E2E3AF0E0E832D091505040E695001C81
:10093E00CAF72BD0FE2F29D0660F771F881FBB1F3B
:10094E00261737074807AB07B0E809F0BB0B802D19
:10095E00BF01FF2793585F4F3AF09E3F510578F045
:10096E000C94060A0C94F3095F3FE4F3983ED4F31B
:10097E00869577956795B795F7959F5FC9F7880F19
:10098E00911D9695879597F90895E1E0660F771F6B
:10099E00881FBB1F621773078407BA0720F0621BFC
:0E09AE00730B840BBA0BEE1F88F7E0950895CB
:1009BC0031E1FC013083319722E220833197A3E3AC
:1009CC00A083319760833197708331971082319770
:1009DC0060E8608331971082319762E060833197D1
:1009EC0063E06083319764E06083319765E06083F6
:1009FC00319766E06083319767E06083319768E0F8
:100A0C006083319769E06083319760E1608331974F
:100A1C003083319732E13083319733E13083319732
:100A2C0034E13083319735E13083319736E13083CF
:100A3C00319737E13083319738E13083319739E1A1
:100A4C003083319730E23083319731E23083319704
:100A5C002083319723E22083319740833197508351
:100A6C00319726E22083319727E22083319728E2C1
:100A7C002083319729E22083319720E3208331971B
:080A8C0021E320838697089501
:100A940011C00E94E40938F00E94EB0920F039F4F7
:100AA4009F3F19F426F40C941B0A0EF4E095E7FB1F
:100AB4000C94060AE92F0E94220958F3BA17620718
:100AC40073078407950720F079F4A6F50C94F209CE
:100AD4000EF4E0950B2EBA2FA02D0B01B901900155
:100AE4000C01CA01A0011124FF27591B99F0593F99
:100AF40050F4503E68F11A16F040A22F232F342FE1
:100B04004427585FF3CF469537952795A795F0402E
:100B14005395C9F77EF41F16BA0B620B730B840B43
:100B2400BAF09150A1F0FF0FBB1F661F771F881FFB
:100B3400C2F70EC0BA0F621F731F841F48F4879553
:100B440077956795B795F7959E3F08F0B0CF939545
:0E0B5400880F08F09927EE0F97958795089562
:100B62008091A006882321F081E08093A306089556
:100B72001092A3062091A506822F90E0FC01EE0FB1
:100B8200FF1FEE0FFF1FEE0FFF1FE80FF91FE45CC0
:100B9200F94F3081311111C02150822F90E0FC01B8
:100BA200EE0FFF1FEE0FFF1FEE0FFF1FE80FF91FE3
:100BB200E45CF94F3081332379F3AC01440F551FC4
:100BC200440F551F440F551F480F591FDA01A45CEB
:100BD200B94F1196ED91FC9112970280F381E02DAD
:100BE2001296FC93EE931197415C594FE417F50767
:100BF20029F442815381FD0152834183FC01EE0FAE
:100C0200FF1FEE0FFF1FEE0FFF1F8E0F9F1FFC0136
:100C1200E45CF94F0180F281E02D86819781909307
:0C0C22009F0680939E062093A50608956F
:100C2E000F920FB6F8940F921F9211242F923F92AB
:100C3E004F925F926F927F928F929F92AF92BF92DE
:100C4E00CF92DF92EF92FF920F931F932F933F93CA
:100C5E004F935F936F937F938F939F93AF93BF93B6
:100C6E00CF93DF93EF93FF93A0919E06B0919F06D3
:100C7E000DB60D920EB60D920E94BF0181110E940B
:100C8E00B105A0919E06B0919F06CD91CDBFDD918D
:100C9E00DEBFFF91EF91DF91CF91BF91AF919F9109
:100CAE008F917F916F915F914F913F912F911F91F6
:100CBE000F91FF90EF90DF90CF90BF90AF909F90ED
:100CCE008F907F906F905F904F903F902F901F90DE
:080CDE000F900FBE0F90089566
:100CE6000F920FB6F8940F921F9211242F923F92F3
:100CF6004F925F926F927F928F929F92AF92BF9226
:100D0600CF92DF92EF92FF920F931F932F933F9311
:100D16004F935F936F937F938F939F93AF93BF93FD
:100D2600CF93DF93EF93FF93A0919E06B0919F061A
:100D36000DB60D920EB60D920E94B105A0919E06BB
:100D4600B0919F06CD91CDBFDD91DEBFFF91EF91B2
:100D5600DF91CF91BF91AF919F918F917F916F91CD
:100D66005F914F913F912F911F910F91FF90EF90BF
:100D7600DF90CF90BF90AF909F908F907F906F90B5
:100D86005F904F903F902F901F900F900FBE0F9047
:020D96000895BE
:100D9800CF93DF93DC01E4E8F6E001C0F90120819C
:100DA80031812A173B07D0F382819381AF01480F25
:100DB800591FA417B50749F412964D915C911397E2
:100DC800840F951F93838283DF0112968D919C91E6
:100DD8001397ED01C80FD91F2C173D07D9F420919F
:100DE800900630919106C217D30781F02A813B8182
:100DF800820F931F13969C938E931297C081D18173
:100E08008881998111969C938E9307C01196DC93E3
:100E1800CE9303C011963C932E93AE17BF0711F0E3
:0A0E2800B183A083DF91CF910895FC
:100E32000F931F93CF93DF93EC01009198061091CB
:100E4200990680919E0690919F0602960E94FB0849
:100E5200C00FD11FE0919E06F0919F06D383C283FB
:100E6200C017D10768F460919E0670919F06809129
:100E72009A0690919B066E5F7F4F0E94400817C0B2
:100E820060919E0670919F0680919C0690919D06AE
:100E92006E5F7F4F0E944008809194069091950664
:100EA200C817D90720F4D0939506C0939406DF9112
:080EB200CF911F910F910895EB
:100EBA00CF93DF93CDB7DEB7A4970FB6F894DEBF12
:100ECA000FBECDBF80E895E20E9460092AEB30E0B0
:100EDA0040E082E1F901DE011196742F0E94BE09F9
:100EEA002CEC30E040E082E1F901DE015396742FE8
:100EFA000E94BE09C12CD12CEE24E3948E010F5F0F
:100F0A001F4F24E630E04EEA50E060E08BEC99E0B7
:100F1A000E9472000E5E1F4F24E630E044EB50E060
:100F2A0060E084ED99E00E9472000E947108FFCF90
:100F3A00E89409C097FB3EF4909580957095619569
:100F4A007F4F8F4F9F4F9923A9F0F92F96E9BB271F
:100F5A009395F695879577956795B795F111F8CF9B
:100F6A00FAF4BB0F11F460FF1BC06F5F7F4F8F4F06
:100F7A009F4F16C0882311F096E911C0772321F0FC
:100F8A009EE8872F762F05C0662371F096E8862F94
:100F9A0070E060E02AF09A95660F771F881FDAF7EB
:0A0FAA00880F9695879597F9089532
:100FB4001BBC89EF8ABD8BE08EBD89B7806189BF78
:100FC400A0919E06B0919F06CD91CDBFDD91DEBF6D
:100FD400FF91EF91DF91CF91BF91AF919F918F914D
:100FE4007F916F915F914F913F912F911F910F913D
:100FF400FF90EF90DF90CF90BF90AF909F908F9035
:101004007F906F905F904F903F902F901F900F9024
:0A1014000FBE0F90089581E00895CB
:10101E00CF93DF93009751F1FC01349722813381F6
:10102E00332324F540815181452B01F5EF013F77A4
:10103E00338322830E94000A20918E0630918F0600
:10104E008A819B81820F931F90938F0680938E06C9
:10105E00CE010E94CC068091880690918906019659
:10106E0090938906809388060E94DE02DF91CF91CD
:02107E000895D3
:10108000CF93DF93EB01488159814F3F2FEF5207F8
:1010900021F4FC01A781B0850DC0DC01139601C0CD
:1010A000DF011296ED91FC91139720813181421757
:1010B0005307B0F71296ED91FC911397FB83EA83E7
:1010C000D583C483BD83AC831396DC93CE931297F0
:1010D00099878887FC0120812F5F2083DF91CF9142
:0210E000089571
:1010E200CF92DF92EF920F931F930F2EF2E9CF2E42
:1010F200F6E0DF2EF02DE12C00E010E020E931E0F7
:101102004EED50E060E08FEC98E00E94720081307A
:1011120081F4F8948FEF9FEF909395068093940655
:1011220081E08093A40610929906109298060E947C
:0E113200DA071F910F91EF90DF90CF90089594
:101140000E942A0988F09F5798F0B92F9927B75124
:10115000B0F0E1F0660F771F881F991F1AF0BA955B
:10116000C9F714C0B13091F00E94F209B1E00895BE
:101170000C94F209672F782F8827B85F39F0B93FB0
:10118000CCF3869577956795B395D9F73EF490950E
:0E1190008095709561957F4F8F4F9F4F08950A
:10119E0000E616E08091A7068823E1F30FB6F894D7
:1011AE000F92D8011596ED91FC911697C681D781B5
:1011BE00CE0102960E94FB088091A6068150809374
:1011CE00A6068091A70681508093A7060F900FBEAA
:1011DE008F89988D0E940F08CE010E940F08809172
:0811EE00A7068111DBCFD6CF6B
:1011F600CF93DF93FC01A085B185C281D381848121
:1012060095819D838C83C481D581828193819B83C3
:101216008A8311968D919C911297E817F90731F4FC
:101226008481958112969C938E93119711861086D0
:0E1236008C9181508C938C91DF91CF91089513
:1012440057FD9058440F551F59F05F3F71F0479573
:10125400880F97FB991F61F09F3F79F08795089558
:10126400121613061406551FF2CF4695F1DF08C077
:10127400161617061806991FF1CF86957105610594
:04128400089408952D
:10128800E0919C06F0919D068081811107C08FEF47
:101298009FEF90939506809394060895E0919C069D
:1012A800F0919D060580F681E02D808191819093D3
:0812B800950680939406089549
:1012C000BC018AB188618AB9072E000C880B990B82
:1012D0000E949F079B01AC0160E074E284E799E4FF
:1012E0000E94140A20E030E040E85FE30E94DD093C
:0812F0000E94A00869B90895ED
:1012F800CF93DF93EC01892B51F00E94000A60E044
:10130800CE010E9419070E94DE02811102C00E94CC
:081318007306DF91CF910895E7
:10132000092E0394000C11F4882352F0BB0F40F4F3
:10133000BF2B11F460FF04C06F5F7F4F8F4F9F4F33
:0213400008950E
:10134200CF93DF93EC018881882331F021960E94AC
:0E135200100A89918111FBCFDF91CF91089590
:10136000FC010396928381832FEF3FEF3483238325
:0C13700096838583908787831082089500
:10137C00992777FD05C005900D920197E1F7089527
:0A138C0001900D920197E1F708951A
:10139600EC01CE010E94A10982E390E00E947C0943
:0213A600F8CF7E
:1013A800EC01CE010E94A10982E390E00E947C0931
:0213B800F8CF6C
:0E13BA005058BB27AA270E944A050C949009A0
:0E13C80000240A941616170618060906089542
:0E13D60000240A941216130614060506089544
:0E13E400E894BB2766277727CB0197F9089579
:0E13F200DC0101C06D9341505040E0F70895BA
:0C1400008091A0068F5F8093A0060895E5
:0C140C0097F99F6780E870E060E00895A9
:08141800FC0111861086089505
:081420005D9BFECF8CB908951D
:081428000E946F040C9490096E
:061430000E94170618954A
:061436009FEF80EC089519
:04143C000C9400000C
:00000001FF
